:03000000020026D5
:0C002600787FE4F6D8FD75813B02006D88
:0A026F000118000529525332333202
:06022E007B007A00792933
:10023400120163F53790000112017CF53890000239
:1002440012017CF53990000312017CF53A90000408
:0C02540012017CF53B75220185379922D0
:0E02600000007F027E997DC7DDFEDEFCDFFA26
:01026E00226D
:10000300D3EF9400EE9400400DE4FD0DBD1BFCEF17
:060013001F70ED1E80EAE3
:0100190022C4
:03001A0012001DB4
:05001D00007F3FDFFE43
:0100220022BB
:1001A900E4FE75210220A007AF210521EF70F612A8
:1001B900001A12001D12001DE4F52630A003752651
:1001C9000175210230A007AF210521EF70F6E52165
:1001D9006401600EE53125E0F531E52642310EBEB8
:0201E90008C04C
:0101EB0022F1
:1000B200C2A0120260D2A012001AD2A020A05675CD
:1000C200210220A007AF210521EF70F67521023031
:1000D200A007AF210521EF70F61201A985312E127A
:1000E20001A985312F1201A985311B1201A9853180
:1000F2001C1201A9853125D2A0E51B251C252E2520
:100102002FF526B5250F852E27852F28851B1985C6
:060112001C1A85252322C2
:1001EC00759850438E40538EFE53890F758BC07596
:1001FC008DFDC2ABD28ED2AFD2AC12022E7FC87E96
:10020C00001200031200B285272985282A85192B94
:10021C00851A2C85232D12022E7F207E4E12000370
:02022C0080E26E
:03002300020118BF
:07011800C0E0C0D075D0105B
:10011F00309912C299E5226405600A74372522F8D6
:10012F00E6F5990522309827AF9974322518F8A66D
:10013F00170518C298E518B40515751800853229EA
:0F014F0085332A85342B85352C85362D75800018
:05015E00D0D0D0E0321A
:100032000201ECE493A3F8E493A34003F68001F2F7
:1000420008DFF48029E493A3F85407240CC8C333CF
:10005200C4540F4420C8834004F456800146F6DF9E
:10006200E4800B010204081020408090026FE47EBD
:10007200019360BCA3FF543F30E509541FFEE49393
:10008200A360010ECF54C025E060A840B8E493A35A
:10009200FAE493A3F8E493A3C8C582C8CAC583CA85
:1000A200F0A3C8C582C8CAC583CADFE9DEE780BE3D
:010279000084
:10016300BB010689828A83E0225002E722BBFE029A
:09017300E32289828A83E49322CD
:10017C00BB010CE58229F582E5833AF583E0225038
:10018C0006E92582F8E622BBFE06E92582F8E22282
:0D019C00E58229F582E5833AF583E493229C
:00000001FF
